:020000040800F2
:10000000A8060020950100085106000849060008CE
:100010004D06000853040008070D0008000000000A
:100020000000000000000000000000002908000897
:100030005704000800000000D90600083D09000828
:10004000AF010008AF010008AF010008AF010008D0
:10005000AF010008AF010008AF010008AF010008C0
:10006000AF010008AF010008AF010008AF010008B0
:10007000AF010008AF010008AF010008AF010008A0
:10008000AF010008AF010008AF010008AF01000890
:10009000AF010008AF010008AF010008AF01000880
:1000A000AF010008AF010008AF010008AF01000870
:1000B000AF010008AF010008AF010008AF01000860
:1000C000AF010008AF010008AF010008AF01000850
:1000D000AF010008A1090008AF010008AF01000846
:1000E000AF010008AF010008AF010008AF01000830
:1000F00000F002F800F03FF80AA090E8000C8244FB
:100100008344AAF10107DA4501D100F034F8AFF2D7
:10011000090EBAE80F0013F0010F18BFFB1A43F0E5
:1001200001031847800E0000A00E0000103A24BF03
:1001300078C878C1FAD8520724BF30C830C144BF4C
:1001400004680C607047000000230024002500268E
:10015000103A28BF78C1FBD8520728BF30C148BF2A
:100160000B607047642900F07580002070471FB550
:100170001FBD10B510BD00F033F91146FFF7F7FFB2
:1001800000F0D6FD00F051F903B4FFF7F2FF03BC15
:1001900000F058F90948804709480047FEE7FEE7A4
:1001A000FEE7FEE7FEE7FEE7FEE7FEE7FEE7FEE727
:1001B00004480549054A064B7047000041090008FC
:1001C000F1000008A8000020A8060020A8020020D6
:1001D000A80200200FB4044910B503AA029800F049
:1001E000D1F810BC5DF814FB180000202DE9F04197
:1001F0000E460446002020622046E168884730B35E
:10020000252805D0D4E901219047206A401CF2E757
:10021000E168204600278847050018D0A5F1410075
:10022000192802D820354FF4006732462946204667
:100230002760FFF797FF40B1012804D0F61D26F094
:1002400007060836D8E7361DD6E72846DAE7206ADB
:10025000BDE8F0812DE9F0410646002410687529BB
:10026000314616A510D0AFF30080002802DA4042D4
:1002700013A507E031688A0701D512A502E04907F6
:1002800004D511A5012401E0AFF3008000210A226A
:1002900006F1240709E0B0FBF2FCB0FBF2F302FB2D
:1002A0001C00303078541846491C0028F3D12346EE
:1002B0002A463046BDE8F04100F00BB800000000CF
:1002C0002D0000002B000000200000007047704748
:1002D00070472DE9F0470D4699469246044600F1D5
:1002E00024080168880604D5E06921F01001216026
:1002F00000E00120A84201DD471B00E00027A169C2
:100300007A1902EB0900081AA0612078C00602D40D
:100310002046AFF30080002608E0D4E901211AF856
:1003200006009047206A401C761C20624E45F4DB94
:100330002078C0060AD52046AFF3008006E0D4E955
:10034000012130209047206A401C2062381EA7F10E
:100350000107F4DC07E0D4E9012118F80500904713
:10036000206A401C2062281EA5F10105F3DC20460E
:10037000AFF300802078000602D50220BDE8F087A8
:100380000120FBE7074B70B50D467B4400F011F8E8
:100390000446284600F020F810B14FF0FF3070BD41
:1003A000204670BD7F09000001694A1C026108787F
:1003B000704700B58FB0CDE90131002105910549A5
:1003C0007944CDE9031011466846FFF70FFF0FB0DF
:1003D00000BD0000E5FFFFFF007B00F080007047DC
:1003E000754600F02BF8AE4605006946534620F0EE
:1003F0000700854618B020B5FFF7DAFEBDE82040BB
:100400004FF000064FF000074FF000084FF0000BD0
:1004100021F00701AC46ACE8C009ACE8C009ACE883
:10042000C009ACE8C0098D46704710B50446AFF36B
:1004300000802046BDE81040FFF7A6BE0048704788
:100440004400002001491820ABBEFEE72600020050
:10045000704700BFFEE7704710B56FF0040000F072
:1004600059FA0A4800680A49B0FBF1F009490870D6
:100470000846007800EB4001C1EBC0104FF6FF7159
:1004800001EAC0000449088010BD000004000020FB
:1004900000127A001C0000201E0000200146114AB4
:1004A00012884A434FF0E0235A6100229A611A46AB
:1004B000126942F001021A6100BF4FF0E022106998
:1004C00000F001021AB100F48032002AF5D04FF09A
:1004D000E022126922F001024FF0E0231A610022AB
:1004E0009A6170471E0000202DE9F0410246002568
:1004F0000026002000230024002791F803C00CF000
:100500000F0591F803C00CF0100CBCF1000F03D0E4
:1005100091F802C04CEA050591F800C0BCF1000F4B
:1005200031D0146800202BE04FF0010C0CFA00F3DE
:10053000B1F800C00CEA03069E4220D183004FF0C0
:100540000F0C0CFA03F7BC4305FA03FC4CEA040455
:1005500091F803C0BCF1280F06D14FF0010C0CFA42
:1005600000FCC2F814C00AE091F803C0BCF1480FC7
:1005700005D14FF0010C0CFA00FCC2F810C0401C71
:100580000828D1D31460B1F800C0BCF1FF0F34DDEE
:10059000546800202EE000F1080C4FF0010808FA22
:1005A0000CF3B1F800C00CEA03069E4221D183008F
:1005B0004FF00F0C0CFA03F7BC4305FA03FC4CEAAE
:1005C000040491F803C0BCF1280F05D100F1080C18
:1005D00008FA0CF8C2F8148091F803C0BCF1480F77
:1005E00007D100F1080C4FF0010808FA0CF8C2F826
:1005F0001080401C0828CED35460BDE8F081000074
:1006000008B50121082000F079F840F2FF10ADF89C
:10061000000010208DF8030003208DF802006946C9
:100620000748FFF761FF0121042000F067F840F25E
:10063000FF10ADF8000069460248FFF755FF08BDFE
:10064000000C01400008014000BFFEE700BFFEE7CC
:100650007047000070B5002100230F22C47804B356
:10066000154C246804F4E064C4F5E064210AC1F187
:100670000403CA40447804FA03F184781440214307
:1006800009010E4C0678A155047804F01F050124D9
:10069000AC4005786D11AD0005F1E025C5F80041CD
:1006A00009E0047804F01F050124AC40044D0678ED
:1006B000761145F8264070BD0CED00E000E400E046
:1006C00080E100E002490143024A116070470000E6
:1006D0000000FA050CED00E07047000029B1064A61
:1006E00012690243044B1A6104E0034A126982430F
:1006F000014B1A61704700000010024029B1064A00
:1007000092690243044B9A6104E0034A926982436E
:10071000014B9A61704700000010024029B1064A5F
:10072000D2680243044BDA6004E0034AD268824391
:10073000014BDA60704700000010024030B5002124
:10074000002200240023324D6D6805F00C0121B118
:10075000042905D008292CD105E02E4D05602BE099
:100760002C4D056028E02A4D6D6805F47012284D67
:100770006D6805F48034022505EB924264B9264D7C
:100780002D6805F010051DB1224D554305600FE0A1
:10079000224D554305600BE01D4D6D6805F4003595
:1007A0001DB11E4D5543056002E01A4D55430560CD
:1007B00002E0184D056000BF00BF154D6D6805F0E3
:1007C000F0010909164D6B5C0568DD404560104D70
:1007D0006D6805F4E061090A114D6B5C4568DD4008
:1007E00085600B4D6D6805F46051C90A0C4D6B5C5A
:1007F0004568DD40C560064D6D6805F44041890BD4
:10080000084D6B5CC568B5FBF3F5056130BD0000B4
:100810000010024000127A000038024000093D003A
:100820002000002030000020704710B500F002F8D2
:1008300010BD00000CB50020019000903348006806
:1008400040F480303149086000BF3048006800F44F
:10085000003000900198401C0190009818B9019850
:10086000B0F5A06FF1D12948006800F4003010B154
:100870000120009001E0002000900098012843D161
:100880002348006840F010002149086008460068CD
:1008900020F0030008600846006840F0020008608D
:1008A0001A48406819494860084640684860084648
:1008B000406840F4806048600846406820F47C103E
:1008C00048600846406840F4E81048600846006800
:1008D00040F08070086000BF0C48006800F00070B5
:1008E0000028F9D00948406820F003000749486013
:1008F0000846406840F00200486000BF0348406876
:1009000000F00C000828F9D10CBD000000100240D6
:1009100000200240042808D14FF0E021096941F08D
:1009200004014FF0E022116107E04FF0E021096976
:1009300021F004014FF0E022116170477047000080
:1009400010B51348006840F00100114908600846DE
:100950004068104908400E494860084600680E4942
:1009600008400B4908600846006820F480200860B1
:100970000846406820F4FE0048604FF41F0088607D
:10098000FFF753FF4FF000600449086010BD0000FE
:10099000001002400000FFF8FFFFF6FE08ED00E047
:1009A00010B540F225511D4800F0A1F810B31B48C6
:1009B00000F0A0F9C4B21A48008800F40040C8B999
:1009C0001748008800F4804060B10A2C03D0002052
:1009D0001349088020E01248008840F40040104984
:1009E000088019E00D2C06D10D48008840F48040A5
:1009F0000B49088010E00A480088C0F30D0009493F
:100A00000C5407480088401C0549088008460088A7
:100A10000F2801DD0020088010BD000000380140D3
:100A2000000000203400002021B1828942F40052ED
:100A3000828104E082894DF6FF731A4082817047FB
:100A400010B504462048844209D101218803FFF7EC
:100A500065FE00214FF48040FFF760FE32E01B4846
:100A6000844209D101214804FFF738FE00214FF4E8
:100A70000030FFF733FE25E01548844209D10121FB
:100A80008804FFF72BFE00214FF48020FFF726FE9D
:100A900018E01048844209D10121C804FFF71EFE66
:100AA00000214FF40020FFF719FE0BE00A488442B2
:100AB00008D101210805FFF711FE00214FF4801035
:100AC000FFF70CFE10BD000000380140004400405C
:100AD00000480040004C004000500040024600200A
:100AE00013880B400BB1012000E00020704770B567
:100AF00002460B460024002100250020C3F34215C6
:100B000003F01F01012606FA01F1012D02D1968999
:100B1000314006E0022D02D1168A314001E0968A6A
:100B200031401C12012606FA04F41688344011B133
:100B30000CB1012000E0002070BDF0B50346002498
:100B40000026002500201846C1F3421401F01F06BC
:100B5000012707FA06F5012C01D10C3004E0022C24
:100B600001D1103000E014301AB107682F4307603C
:100B700002E00768AF430760F0BD00002DE9F047D1
:100B800086B005460E460024A24600BFA1460027B7
:100B90002F462C8A4CF6FF700440F08804432C82C8
:100BA000AC894EF6F3100440B0883189084371894E
:100BB00008430443AC81AC8A4FF6FF400440B0893F
:100BC0000443AC8201A8FFF7B9FD1F48874202D158
:100BD000DDF810A001E0DDF80CA0A88900F40040C9
:100BE00040B10AEBCA0000EB0A1031684900B0FBC3
:100BF000F1F807E00AEBCA0000EB0A10316889003F
:100C0000B0FBF1F86420B8FBF0F004012009642186
:100C100001FB1089A88900F4004040B1322000EBAC
:100C2000C900B0FBF1F000F00700044308E03220F7
:100C300000EB09106421B0FBF1F000F00F00044359
:100C40002C8106B0BDE8F0870038014010B586B0B1
:100C500004462648FFF7F4FE012144F20400FFF7A2
:100C60004DFD4FF40070ADF8140003208DF8160010
:100C700018208DF8170005A91D48FFF735FC4FF423
:100C80008060ADF8140004208DF8170005A91848FD
:100C9000FFF72AFC01940020ADF80800ADF80A0027
:100CA000ADF80C00ADF810000C20ADF80E0001A955
:100CB0000E48FFF763FF25208DF8000003208DF814
:100CC00001008DF8020001208DF803006846FFF74F
:100CD000C1FC012240F225510448FFF72EFF0121FB
:100CE0000248FFF7A1FE06B010BD00000038014029
:100CF0000008014001468888C0F308007047C1F32E
:100D000008028280704700BFFEE7000070B504460D
:100D10000D4600BF40210548FFF7E0FE0028F9D04E
:100D2000E1B20248FFF7EBFF204670BD00380140FA
:100D30004FF4A060FFF7C6FCFFF78EFB4FF4E130E5
:100D4000FFF784FFFFF75CFC5C4801685CA0FFF7DD
:100D500041FA5FA0FFF73EFA01206249086062494C
:100D6000C1F89C01614908606149C1F884011427F8
:100D700000BF0DE00122411E5B4B03EB8101C1F876
:100D80008021811C5A4B03EB8101C1F88021401C5A
:100D90000728EFDB57A0FFF71DFA39465BA0FFF7E6
:100DA00019FA8AE06048008800F4004000287DD0ED
:100DB0005D48007800F03F065CA0FFF70BFA604842
:100DC0000078372801DA012000E000205C4909782A
:100DD000292901DD012100E00021084000284ED032
:100DE00057480078A0F13004601E3F4901EB8000B5
:100DF000D0F8800108B9012100E00021601E3A4AC4
:100E000002EB8000C0F88011A01C394901EB800082
:100E1000D0F8800108B9012100E00021A01C344A6B
:100E200002EB8000C0F88011A01C114601EB80008D
:100E3000D0F88001611E2C4A02EB8101D1F88011AB
:100E4000484018B13FA0FFF7C5F917E0A01C28499A
:100E500001EB8000D0F8800140B121463FA0FFF7B0
:100E6000B9F9012021490831086007E0214641A075
:100E7000FFF7B0F900201D490831086002E043A0E7
:100E8000FFF7A8F900250DE02D48415D4448FFF724
:100E900036FF00BF40214248FFF720FE0128F9D16C
:100EA000681CC5B2B542EFDB002000E002E01E493D
:100EB000088002E0B8B2FFF7F1FA73E704000020FF
:100EC00053797374656D436C6B3A25640D0A0000A9
:100ED0004750494F20546F67676C65205445535401
:100EE0000D0A000098012142000021428081214228
:100EF0000080214273797374656D20696E6974692D
:100F0000616C697A656421200D0A0000736572695D
:100F1000616C20696E74657276616C20697320253E
:100F200064206D732E0D0A0000000020636D6420A4
:100F300072656365697665643A200D0A00000000F9
:100F40003400002057524F4E4720535441545553BC
:100F50002C54525920414741494E21006368616E2B
:100F60006E656C202564206973206F70656E656402
:100F7000210D0A006368616E6E656C20256420692E
:100F80007320636C6F736564210D0A00696E76616E
:100F90006C696420636F6D6D616E64210D0A0000E1
:100FA00000380140C40F0008000000203400000099
:100FB0002C010008F80F000834000020740600001F
:100FC000480100080000000000A24A0400000000E0
:100FD00000000000010203040607080900000000E9
:100FE00000000000000000000102030401020304ED
:080FF0000607080902040608C7
:04000005080000F1FE
:00000001FF
